:0400000016EF3AF0CD
:107427000100000001270EF66E740EF76E000EF8CD
:107437006E00EE0BF010EE05F00900F5CFEEFFE55C
:1074470050E150FAE1000EF86E00012BEF3AF00020
:107457000E956E000E8C6E938E938CF19E819E22FC
:10746700D0820E0A6EDE0EE82EFED70A2EFCD70F4C
:10747700280F6E070E0F18D8A415D0010E0F6E1225
:10748700D04BEC3BF0EBD76AEC3AF0E8D72DEC3C6D
:10749700F0E5D70FEC3DF0E2D7F1EC3DF0DFD7D3C5
:1074A700EC3EF0DCD70F50010AD8B4EAD7030AD86C
:1074B700B4EAD7010AD8B4EAD7070AD8B4EAD70199
:1074C7000AD8B4EAD7030AD8B4EAD7C8D78C680B66
:1074D700040C100D100E10D8A411D0820E016EDE10
:1074E7000EE82EFED7012EFCD7000E8C6E820E0101
:1074F7006EDE0EE82EFED7012EFCD7A4D0020E0BAF
:10750700180C100D100E10D8A41BD0020E026E041A
:107517000E016EBA0EE82EFED7012EFCD7022EFA08
:10752700D700D0000E8C6E020E026E040E016EBAEA
:107537000EE82EFED7012EFCD7022EFAD700D082F6
:10754700D0030E0B180C100D100E10D8A41AD00370
:107557000E026E080E016E770EE82EFED7012EFC86
:10756700D7022EFAD700F0000E8C6E030E026E08BB
:107577000E016E770EE82EFED7012EFCD7022EFAEB
:10758700D740D0040E0B180C100D100E10D8A419EC
:10759700D0030E026E8A0E016E560EE82EFED7013C
:1075A7002EFCD7022EFAD7000E8C6E030E026E8ABF
:1075B7000E016E560EE82EFED7012EFCD7022EFACC
:1075C700D741D0050E0B180C100D100E10D8A41BA8
:1075D700D0050E026E0F0E016EF10EE82EFED701DA
:1075E7002EFCD7022EFAD700F0000E8C6E050E0285
:1075F7006E0F0E016EF10EE82EFED7012EFCD7029C
:107607002EFAD700F01FD0060E0B180C100D100E17
:1076170010D8A418D0060E026E130E016EAE0EE837
:107627002EFED7012EFCD7022EFAD7000E8C6E063F
:107637000E026E130E016EAE0EE82EFED7012EFC63
:10764700D7022EFAD781BC1200820E016EDE0EE839
:107657002EFED7012EFCD7010E0B240B6E000E0C4D
:10766700200C6E000E0D200D6E000E0E200E6E0704
:107677000E0B180C100D100E10D8A41200010E0BD3
:107687006E000E0C6E000E0D6E000E0E6E1200AA2E
:107697000E8C6E0B040C100D100E10D8A411D08296
:1076A7000E016EDE0EE82EFED7012EFCD7000E8CE3
:1076B7006E820E016EDE0EE82EFED7012EFCD7A4D9
:1076C700D0020E0B180C100D100E10D8A41BD002F0
:1076D7000E026E040E016EBA0EE82EFED7012EFCC6
:1076E700D7022EFAD700D0000E8C6E020E026E045F
:1076F7000E016EBA0EE82EFED7012EFCD7022EFA27
:10770700D700D082D0030E0B180C100D100E10D816
:10771700A41AD0030E026E080E016E770EE82EFE35
:10772700D7012EFCD7022EFAD700F0000E8C6E037D
:107737000E026E080E016E770EE82EFED7012EFCA4
:10774700D7022EFAD740D0040E0B180C100D100ECE
:1077570010D8A419D0030E026E8A0E016E560EE8D9
:107767002EFED7012EFCD7022EFAD7000E8C6E0301
:107777000E026E8A0E016E560EE82EFED7012EFC03
:10778700D7022EFAD741D0050E0B180C100D100E8C
:1077970010D8A41BD0050E026E0F0E016EF10EE875
:1077A7002EFED7012EFCD7022EFAD700F0000E8C42
:1077B7006E050E026E0F0E016EF10EE82EFED7015A
:1077C7002EFCD7022EFAD700F01FD0060E0B180C8E
:1077D700100D100E10D8A418D0060E026E130E014D
:1077E7006EAE0EE82EFED7012EFCD7022EFAD7007A
:1077F7000E8C6E060E026E130E016EAE0EE82EFE96
:10780700D7012EFCD7022EFAD781BC1200820E01B7
:107817006EDE0EE82EFED7012EFCD7010E0B240BD1
:107827006E000E0C200C6E000E0D200D6E000E0E5D
:10783700200E6E070E0B180C100D100E10D8A41288
:1078470000010E0B6E000E0C6E000E0D6E000E0E7C
:107857006E1200660E8C6E0B040C100D100E10D8F5
:10786700A411D0820E016EDE0EE82EFED7012EFC8B
:10787700D7000E8C6E820E016EDE0EE82EFED7014B
:107887002EFCD7A4D0020E0B180C100D100E10D81A
:10789700A41BD0020E026E040E016EBA0EE82EFE75
:1078A700D7012EFCD7022EFAD700D0000E8C6E021D
:1078B7000E026E040E016EBA0EE82EFED7012EFCE4
:1078C700D7022EFAD700D082D0030E0B180C100D5A
:1078D700100E10D8A41AD0030E026E080E016E7790
:1078E7000EE82EFED7012EFCD7022EFAD700F000A5
:1078F7000E8C6E030E026E080E016E770EE82EFEDA
:10790700D7012EFCD7022EFAD740D0040E0B180C45
:10791700100D100E10D8A419D0030E026E8A0E0196
:107927006E560EE82EFED7012EFCD7022EFAD70090
:107937000E8C6E030E026E8A0E016E560EE82EFE38
:10794700D7012EFCD7022EFAD741D0050E0B180C03
:10795700100D100E10D8A41BD0050E026E0F0E01CD
:107967006EF10EE82EFED7012EFCD7022EFAD700B5
:10797700F0000E8C6E050E026E0F0E016EF10EE812
:107987002EFED7012EFCD7022EFAD700F01FD00605
:107997000E0B180C100D100E10D8A418D0060E02DE
:1079A7006E130E016EAE0EE82EFED7012EFCD70227
:1079B7002EFAD7000E8C6E060E026E130E016EAEF7
:1079C7000EE82EFED7012EFCD7022EFAD781BC1265
:1079D70000820E016EDE0EE82EFED7012EFCD701C7
:1079E7000E0B240B6E000E0C200C6E000E0D200DDE
:1079F7006E000E0E200E6E070E0B180C100D100EDB
:107A070010D8A41200010E0B6E000E0C6E000E0DA6
:107A17006E000E0E6E1200990E8C6E0B040C100D7C
:107A2700100E10D8A411D0820E016EDE0EE82EFEC5
:107A3700D7012EFCD7000E8C6E820E016EDE0EE88B
:107A47002EFED7012EFCD7A4D0020E0B180C100D5A
:107A5700100E10D8A41BD0020E026E040E016EBACF
:107A67000EE82EFED7012EFCD7022EFAD700D00043
:107A77000E8C6E020E026E040E016EBA0EE82EFE1A
:107A8700D7012EFCD7022EFAD700D082D0030E0BD7
:107A9700180C100D100E10D8A41AD0030E026E0881
:107AA7000E016E770EE82EFED7012EFCD7022EFAB6
:107AB700D700F0000E8C6E030E026E080E016E7773
:107AC7000EE82EFED7012EFCD7022EFAD740D0049F
:107AD7000E0B180C100D100E10D8A419D0030E029F
:107AE7006E8A0E016E560EE82EFED7012EFCD702C7
:107AF7002EFAD7000E8C6E030E026E8A0E016E569A
:107B07000EE82EFED7012EFCD7022EFAD741D0055C
:107B17000E0B180C100D100E10D8A41BD0050E025A
:107B27006E0F0E016EF10EE82EFED7012EFCD70266
:107B37002EFAD700F0000E8C6E050E026E0F0E01A6
:107B47006EF10EE82EFED7012EFCD7022EFAD700D3
:107B5700F01FD0060E0B180C100D100E10D8A4181D
:107B6700D0060E026E130E016EAE0EE82EFED70182
:107B77002EFCD7022EFAD7000E8C6E060E026E135D
:107B87000E016EAE0EE82EFED7012EFCD7022EFA9E
:107B9700D781BC1200820E016EDE0EE82EFED701E1
:107BA7002EFCD7010E0B240B6E000E0C200C6E0062
:107BB7000E0D200D6E000E0E200E6E070E0B180C0C
:107BC700100D100E10D8A41200010E0B6E000E0C33
:107BD7006E000E0D6E000E0E6E1200550E8C6E0BA3
:107BE700040C100D100E10D8A411D0820E016EDEF9
:107BF7000EE82EFED7012EFCD7000E8C6E820E01EA
:107C07006EDE0EE82EFED7012EFCD7A4D0020E0B97
:107C1700180C100D100E10D8A41BD0020E026E0403
:107C27000E016EBA0EE82EFED7012EFCD7022EFAF1
:107C3700D700D0000E8C6E020E026E040E016EBAD3
:107C47000EE82EFED7012EFCD7022EFAD700D082DF
:107C5700D0030E0B180C100D100E10D8A41AD00359
:107C67000E026E080E016E770EE82EFED7012EFC6F
:107C7700D7022EFAD700F0000E8C6E030E026E08A4
:107C87000E016E770EE82EFED7012EFCD7022EFAD4
:107C9700D740D0040E0B180C100D100E10D8A419D5
:107CA700D0030E026E8A0E016E560EE82EFED70125
:107CB7002EFCD7022EFAD7000E8C6E030E026E8AA8
:107CC7000E016E560EE82EFED7012EFCD7022EFAB5
:107CD700D741D0050E0B180C100D100E10D8A41B91
:107CE700D0050E026E0F0E016EF10EE82EFED701C3
:107CF7002EFCD7022EFAD700F0000E8C6E050E026E
:107D07006E0F0E016EF10EE82EFED7012EFCD70284
:107D17002EFAD700F01FD0060E0B180C100D100E00
:107D270010D8A418D0060E026E130E016EAE0EE820
:107D37002EFED7012EFCD7022EFAD7000E8C6E0628
:107D47000E026E130E016EAE0EE82EFED7012EFC4C
:107D5700D7022EFAD781BC1200820E016EDE0EE822
:107D67002EFED7012EFCD7010E0B240B6E000E0C36
:107D7700200C6E000E0D200D6E000E0E200E6E07ED
:107D87000E0B180C100D100E10D8A41200010E0BBC
:107D97006E000E0C6E000E0D6E000E0E6E120000C1
:107DA7000E076E000E066E000E096E000E086E00BE
:107DB7000E056E000E046E05BE08D0055005E105E0
:107DC7000E045CD8B0120001D01200065008248CB3
:107DD7006E04C001F0010E026E000E036E012A034D
:107DE700D0D89002360336012EFBD70F0E021600AD
:107DF7000E031602500626035007220450000801FE
:107E07006E070E0126010E026E000E036E012A0395
:107E1700D0033403320232012EFBD7F00E021600D4
:107E27000E031602500826035009220B040C100DEE
:107E3700100E10D8A411D0820E016EDE0EE82EFEB1
:107E4700D7012EFCD7000E8C6E820E016EDE0EE877
:107E57002EFED7012EFCD7A4D0020E0B180C100D46
:107E6700100E10D8A41BD0020E026E040E016EBABB
:107E77000EE82EFED7012EFCD7022EFAD700D0002F
:107E87000E8C6E020E026E040E016EBA0EE82EFE06
:107E9700D7012EFCD7022EFAD700D082D0030E0BC3
:107EA700180C100D100E10D8A41AD0030E026E086D
:107EB7000E016E770EE82EFED7012EFCD7022EFAA2
:107EC700D700F0000E8C6E030E026E080E016E775F
:107ED7000EE82EFED7012EFCD7022EFAD740D0048B
:107EE7000E0B180C100D100E10D8A419D0030E028B
:107EF7006E8A0E016E560EE82EFED7012EFCD702B3
:107F07002EFAD7000E8C6E030E026E8A0E016E5685
:107F17000EE82EFED7012EFCD7022EFAD741D00548
:107F27000E0B180C100D100E10D8A41BD0050E0246
:107F37006E0F0E016EF10EE82EFED7012EFCD70252
:107F47002EFAD700F0000E8C6E050E026E0F0E0192
:107F57006EF10EE82EFED7012EFCD7022EFAD700BF
:107F6700F01FD0060E0B180C100D100E10D8A41809
:107F7700D0060E026E130E016EAE0EE82EFED7016E
:107F87002EFCD7022EFAD7000E8C6E060E026E1349
:107F97000E016EAE0EE82EFED7012EFCD7022EFA8A
:107FA700D781BC22D0820E016EDE0EE82EFED701ED
:107FB7002EFCD7010E0B240B6E000E0C200C6E004E
:107FC7000E0D200D6E000E0E200E6E070E0B180CF8
:107FD700100D100E10D8A408D0010E0B6E000E0C59
:107FE7006E000E0D6E000E0E6E044A052A05BEEDDC
:097FF700D6055001E1E4D61200A8
:020000040020DA
:08000000FFFFFFFFFFFFFFFF00
:020000040030CA
:0E00000000091F1EFF8181FF0FC00FE00F409F
:00000001FF
